:1000000000200010150100008D0100008D0100008E
:1000100000000000000000000000000000000000E0
:100020000000000000000000000000008D01000042
:1000300000000000000000008D0100008D010000A4
:100040008D0100008D0100008D010000250A0000D7
:100050008D0100008D0100008D0100008D01000068
:100060008D010000D90200008D0100008D0100000B
:100070008D0100008D0100008D0100008D01000048
:100080008D0100008D0100008D0100008D01000038
:100090008D0100008D0100008D0100008D01000028
:1000A0008D0100008D0100008D0100008D01000018
:1000B0008D0100008D0100008D0100008D01000008
:1000C00080B500AF0D4B1A680C4B80218A431A6033
:1000D0000B4B00221A600B4B01221A600A4B0422C0
:1000E0001A60084B01221A60084B03221A60084B61
:1000F00001221A60C046BD4680BDC0463882044019
:1001000040800440448004400880044070800440E3
:100110007480044080B584B000AFFFF7D1FF164B68
:10012000FB60164BBB60164A144BD31A7B6007E08A
:10013000FA68531CFB60BB68591CB96012781A70CE
:100140007B685A1E7A60002BF2D10E4BBB600E4AC0
:100150000C4BD31A7B6004E0BB685A1CBA600022C7
:100160001A707B685A1E7A60002BF5D100F07CFA79
:10017000C046BD4604B080BDDF1000000000001086
:1001800019000010190000103C00001080B500AFED
:10019000FEE7C04680B500AF2C4B1A682B4B0421FC
:1001A0000A431A602A4B1A68294B1202120A1A6073
:1001B000274B1A68264BE02109050A431A60254B94
:1001C0001A68244B802149000A431A60224B1A689E
:1001D000214B802149000A431A60204B1A681F4BAB
:1001E00001210A431A601E4B962252001A601D4BD1
:1001F000962252001A601C4B01221A601B4BD0221F
:1002000012021A601A4B02221A601A4BA022D20163
:100210001A60194B01221A60184B02221A60184BFF
:1002200003221A80094B1A68084B04218A431A607A
:10023000144B01221A60144B1A68134B8021890059
:100240000A431A60C046BD4680BDC0460440005007
:100250001CC00040808004400480044000400050E6
:100260000041005000420050004300500443005041
:10027000084300500C430050004500500445005016
:1002800008400050F040005000E100E080B582B02E
:1002900000AF78600C4B1A680B4B04210A431A60BC
:1002A0000A4B7A681A600A4B7A681A60094B002276
:1002B0001A60054B1A68044B04218A431A60C04631
:1002C000BD4602B080BDC046044000500041005011
:1002D000004200504040005080B500AF154B012255
:1002E0001A60154B1B685A1C134B1A60124B1A6884
:1002F000124B1B689A4202D1114B00221A700E4B0E
:100300001A68104B1B689A4202D10F4B00221A70D8
:10031000094B1A68FA23DB009A4208DB064B0022DD
:100320001A60074B01221A70074B01221A70C0464F
:10033000BD4680BDF44000501C00001000000010BD
:10034000010000A004000010090000A080B500AF6B
:100350000A4B0B4A1A600B4B00221A600A4B05220B
:100360001A60C046084B1A6880235B021340F9D01C
:10037000054B00221A60C046BD4680BD14E000E077
:100380005FEA000018E000E010E000E080B582B015
:1003900000AF786001E0FFF7D9FF7B685A1E7A60F2
:1003A000002BF8D1C046C046BD4602B080BD80B526
:1003B00084B000AF7860364B364A1A60364B354A07
:1003C0001A60364B05221A6007E0344B1A68802306
:1003D0005B02134001D0002356E0314B1B78DBB2A7
:1003E000002BF2D12D4B00221A60294B294A1A60AA
:1003F000294B284A1A60294B05221A6007E0274B2F
:100400001A6880235B02134001D000233CE0244B98
:100410001B78DBB2002BF2D0204B00221A601C4B61
:100420001C4A1A601C4B1B4A1A601C4B05221A609E
:100430000023FB601DE0194B1A6880235B02134008
:1004400001D0002320E0164B1B78DBB2002BF2D149
:1004500007E0124B1A6880235B02134001D000238F
:1004600012E00F4B1B78DBB2002BF2D0FB6801339C
:10047000FB60FA687B689A42E5DB084B00221A6051
:10048000054B1B68034AD31A1800BD4604B080BD53
:1004900014E000E0FFFFFF0018E000E010E000E0E3
:1004A0000D0000A080B500AF244B1A68234B2449EF
:1004B0000A401A60214B1A68204B8021C9010A4367
:1004C0001A60204B1A681F4B10210A431A601B4BFD
:1004D0001A681A4B08210A431A601A4B1A68194BFA
:1004E00020210A431A60154B1A68144B04210A4351
:1004F0001A60124B1A68114B802109010A431A60D5
:100500000E4B1A680D4B8021C9000A431A600B4B31
:100510001A680A4B802109020A431A60074B1A68BD
:10052000064B02210A431A60044B1A68034B8021D0
:1005300089000A431A60C046BD4680BD002000A065
:10054000FFDFFFFFC0C1004080B582B000AF0A4BA3
:100550001B687B60084B094A1A60C046064B1A6844
:100560008023DB051340F9D1034B7A681A60C0463B
:10057000BD4602B080BDC04600C001403B00004007
:1005800080B500AF134B1A68124B10218A431A60D2
:10059000114B1A68104B802149040A431A60FFF777
:1005A000D3FF0E4B1A680D4B520052081A600C4BC9
:1005B00001221A600B4B1A680A4B0B490A401A6059
:1005C000084B1A68074B09490A401A60C046BD46E5
:1005D00080BDC046388204408080044008C001408D
:1005E00000C00140C0C10040FFFFFEFFFFFFBFFF92
:1005F00080B582B000AF7860184B1A68174B520074
:1006000052081A60154B1A68144B120B12031A6029
:10061000124B1A6801217B6899400B0019000F4B9F
:100620000A431A600D4B1A680C4B0D490A431A60B5
:100630000A4B1A68094B8021C9040A431A60C04654
:10064000084B1B68002BFBDA064B1B681B091B05BC
:100650001B0D1800BD4602B080BDC04608C0014059
:100660000000048010C0014080B586B000AF1723A1
:10067000FB1800221A70FFF715FFE1235B02180038
:1006800000F058F9FFF77CFFFFF784FD62B6FA230C
:100690005B001800FFF77AFE884B180000F056FA4E
:1006A000874B180000F052FA864B180000F04EFA03
:1006B000854B180000F04AFA844B180000F046FA07
:1006C000834B180000F042FA824B180000F03EFA0B
:1006D0000320FFF78DFF03003B613B697E4A5343D4
:1006E0007E49180000F0E8FA0300FB607C4B18001C
:1006F00000F02CFA3B6904221021180000F096FA51
:10070000784B180000F022FAFB687749180000F0D7
:10071000D3FA030001220A21180000F087FA2E20E4
:1007200000F0F2F9FB687049180000F0ABFB0B0019
:1007300004220A21180000F079FA6C4B180000F02E
:1007400005FA0920FFF754FF03003B613B69624A49
:1007500053436249180000F0AFFA0300FB60644B9A
:10076000180000F0F3F93B6904221021180000F092
:100770005DFA5C4B180000F0E9F9FB685A49180073
:1007800000F09AFA030001220A21180000F04EFA44
:100790002E2000F0B9F9FB685349180000F072FBF5
:1007A0000B0004220A21180000F040FA4F4B1800F9
:1007B00000F0CCF94F4B01221A702320FFF7F7FD10
:1007C0000300BB604B4B00221A70BB68002B1EDD80
:1007D000B968494800F070FA03007B60474B180085
:1007E00000F0B4F97B6807220A21180000F01EFA15
:1007F000434B180000F0AAF9BB6806220A21180032
:1008000000F014FA3F4B180000F0A0F903E03E4B53
:10081000180000F09BF93D4B00221A703C4B00225F
:100820001A703C4B00221A703B4B01221A703B4B52
:1008300001221A703A4B00221A703A4B00221A70A9
:100840001722BB181B78BA18591C1170042B10D82A
:100850009A00354BD3181B689F462C4B01221A7007
:100860000AE02B4B01221A7006E02A4B01221A7073
:1008700002E0C04600E0C0461722BB181B78042BDC
:1008800002D9BB1800221A70284B1B68642B03DDA9
:10089000264B00221A6002E0244BC8221A60244B27
:1008A0001B68642B03DD224B00221A6002E0204B00
:1008B000C8221A60C820FFF769FD09E7900E000002
:1008C0009C0E0000BC0E00000C0F0000440F000046
:1008D000B40F000000100000E8800000FF0F0000CF
:1008E0006C10000078100000102700007C10000041
:1008F000801000000E0000A000752B7D8C10000001
:10090000901000009C100000A8100000030000A040
:10091000020000A00B0000A00A0000A00F0000A031
:10092000010000A0090000A0C81000000000001095
:100930000400001080B582B000AF78602B4B1A68BD
:100940002A4B08218A431A60294B1A68284B8021B8
:10095000C9010A431A60254B1A68244B08210A432F
:100960001A60244B1A68234B08210A431A60224B51
:100970001A68214B01210A431A60204B1A681F4B49
:10098000FF218A431A601D4B1A681C4B04210A433D
:100990001A601A4B1A68194B19490A401A60174A0B
:1009A000164B12681A60174B01221A60164B002270
:1009B0001A60164B00221A607B681B01190014484C
:1009C00000F07AF903001A00124B1A60124B012250
:1009D0001A60124B00221A60114B1A68104B452105
:1009E0000A431A60C046BD4602B080BD0480044080
:1009F0008080044000E100E0C0C1004000C0004031
:100A0000FF00FFFF94800440F0800440F480044025
:100A100000879303204006400C40064004400640F7
:100A20000040064080B582B000AF094B1B687B6078
:100A30007B680122134007D0064B1B68DAB2064BD5
:100A40001100180000F00AF8C046BD4602B080BD93
:100A500024400640144006402000001080B582B0BB
:100A600000AF78600A00FB1C1A707B689B680F2B34
:100A700014D872B67B689B685A1C7B689A607B6846
:100A80001B687A68D318FA1C12781A737B681B6883
:100A900001330F221A407B681A6062B6C046BD4619
:100AA00002B080BD80B584B000AF78600F217B18A4
:100AB00000221A707B689B68002B14D072B67B688A
:100AC0009B685A1E7B689A607B685A687B187968B5
:100AD0008A18127B1A707B685B6801330F221A40F8
:100AE0007B685A6062B60F23FB181B781800BD465E
:100AF00004B080BD80B500AF024B9B681800BD46B6
:100B000080BDC0462000001080B584B000AF020058
:100B1000FB1D1A700A4BFB60C046FB685A1EFA6048
:100B2000002B04D0074B1B6804221340F5D0064B62
:100B3000FA1D12781A60C046BD4604B080BDC0469A
:100B4000FFFF0000084006401C40064080B582B010
:100B500000AF786007E07B681B781800FFF7D4FFD0
:100B60007B6801337B607B681B78002BF3D1C04628
:100B7000C046BD4602B080BD80B500AF034B180033
:100B8000FFF790FF03001800BD4680BD2000001055
:100B9000B0B584B000AF786039600023FB600B23F0
:100BA000FB1800221A7018E00B257C19FFF7E4FFF0
:100BB000030023702C003B191B78002BF4D03B1949
:100BC0001B781800FFF7A0FFFB685A1CFA601A0098
:100BD0007B689B183A1912781A703B68013BFA68D7
:100BE0009A4204DA0B23FB181B780A2BDCD1FB6832
:100BF000002B04DDFB687A68D31800221A70FB68AA
:100C00001800BD4604B0B0BD80B582B000AF7860BA
:100C10007B681800FFF79AFF034B1800FFF796FF59
:100C2000C046BD4602B080BDDC10000080B58EB06D
:100C300000AFF860B9607A601023FB182022002111
:100C400099541F237B631AE0FB68B968180000F011
:100C500019F90B0019007B6B5A1E7A63154A515C17
:100C60001022BA18D154B968F86800F025F80300CA
:100C7000FB607B68002B02D07B68013B7B60FB68DC
:100C8000DA17D31ADB0FDAB27B68D917CB1ADB0F6E
:100C9000DBB21343DBB2002BD6D17B6B01331022C6
:100CA000BA18D3181800FFF751FFC046BD460EB062
:100CB00080BDC0460800001003460B437FD40022CD
:100CC00043088B4274D303098B425FD3030A8B42E0
:100CD00044D3030B8B4228D3030C8B420DD3FF224A
:100CE000090212BA030C8B4202D31212090265D018
:100CF000030B8B4219D300E0090AC30B8B4201D3CB
:100D0000CB03C01A5241830B8B4201D38B03C01A11
:100D10005241430B8B4201D34B03C01A5241030B88
:100D20008B4201D30B03C01A5241C30A8B4201D339
:100D3000CB02C01A5241830A8B4201D38B02C01AE4
:100D40005241430A8B4201D34B02C01A5241030A5B
:100D50008B4201D30B02C01A5241CDD2C3098B4240
:100D600001D3CB01C01A524183098B4201D38B01BD
:100D7000C01A524143098B4201D34B01C01A524160
:100D800003098B4201D30B01C01A5241C3088B42A5
:100D900001D3CB00C01A524183088B4201D38B0090
:100DA000C01A524143088B4201D34B00C01A524132
:100DB000411A00D201465241104670475DE0CA0F09
:100DC00000D04942031000D34042534000229C46C9
:100DD00003098B422DD3030A8B4212D3FC228901D3
:100DE00012BA030A8B420CD3890192118B4208D3A9
:100DF000890192118B4204D389013AD0921100E00B
:100E00008909C3098B4201D3CB01C01A524183091E
:100E10008B4201D38B01C01A524143098B4201D34B
:100E20004B01C01A524103098B4201D30B01C01A76
:100E30005241C3088B4201D3CB00C01A52418308F0
:100E40008B4201D38B00C01A5241D9D243088B4246
:100E500001D34B00C01A5241411A00D201466346E9
:100E600052415B10104601D34042002B00D549424D
:100E7000704763465B1000D3404201B5002000F08C
:100E800005F802BD0029F8D016E770477047C04644
:100E90001B5B324A1B5B313B314800000D0A4C5052
:100EA00043383234206D756C746920492F4F2065AA
:100EB00078616D706C652E0D0A0000004D656173E0
:100EC000757265732074686520766F6C74616765F0
:100ED000206174206368616E6E656C7320332061DD
:100EE0006E642039202870696E73203120616E6431
:100EF0002032206F66205453534F5032302070619F
:100F0000636B616765290D0A000000004D65617320
:100F10007572657320706572696F64206F6E205002
:100F2000494F305F3133202870696E2033206F665F
:100F3000205453534F503230207061636B616765AA
:100F4000290D0A00546F67676C65732050494F3054
:100F50005F332C2050494F305F322C2050494F30A6
:100F60005F31312C2050494F305F31302C205049B7
:100F70004F305F31352C2050494F305F312C20509D
:100F8000494F305F39202870696E7320372C203824
:100F90002C20392C2031302C203131206F66205408
:100FA00053534F503230207061636B616765290D78
:100FB0000A00000047656E65726174657320736591
:100FC00072766F2050574D73206F6E2050494F300E
:100FD0005F312C2050494F305F39202870696E7383
:100FE0002031322C203133206F66205453534F5020
:100FF0003230207061636B616765290D0A00000063
:101000005741524E494E473A2050494F305F313197
:10101000202870696E20392920616E642050494F64
:10102000305F3130202870696E20313029206E65A4
:1010300065642065787465726E616C2070756C6C87
:101040002D7570207265736973746F727320746F7D
:1010500020332E33562028316B207365656D732045
:10106000746F20776F726B290D0A00004144435B57
:10107000335D3D30780000002C2000005620000039
:101080004144435B395D3D3078000000663D00001F
:10109000487A2C20636F756E743D0000202020205C
:1010A0002020202020200D004E4F205349474E4144
:1010B0004C20202020202020202020202020202004
:1010C0002020202020200D005A0800006208000087
:0F10D0006A08000076080000760800000D0A008C
:1010DF009600000096000000303132333435363739
:0910EF00383941424344454600F2
:00000001FF
